:0C0000000C9481000C947A020C9408030C
:040010000C94D60B6B
:04001C000C94870BAE
:040028000C9423030E
:040034000C94F60B27
:040040000C94EF002D
:14005400370C480C590C6A0C7B0C8C0C9D0CAE0CBF0CD00CFD
:14006800E10CF20C030D140D250D360D29122C1243125E12B5
:14007C007F129B12B212CF12F0120C131E1335135213731308
:140090008F13A1130000F7032300A60400010101010100003A
:1400A400000000000000000000000000000000000000000048
:1400B800000000000000000000000000000000000000000034
:1400CC0000000000000000000000010001000001000001001C
:1400E00000000000000000000000000000000000000000000C
:1400F4000000000000000000000000000000CFE5D8E0CDBF00
:14010800DEBFCE51D0400AEA08830024EEECF0E011E0E832BF
:14011C00F10711F00192FBCF0083E4E9F0E0A0E6B0E011E052
:1401300000E00BBFE230F10721F0C89531960D92F9CF0E94C9
:140144000011FFCFF8940DD01BD021D028D032D039D085E01B
:1401580085BF80EC8BBF82E989BF7894089588EF8BBB22243A
:14016C002ABA8FE388BB27BA25BA8FEF84BB8CE482BB83EB4E
:1401800081BB0895222426B880E487B98EE886B90895222432
:1401940023BE22BE8DE78CBF8BE883BF089522242EBC2DBC6C
:1401A8002CBC2BBC2ABC29BC28BC2FBC2EBC0895222425BC2C
:1401BC0024BC22BC8CE983BD25BC089522242AB82BB88EE8BD
:1401D00080BD83E389B920BC88E98AB908951A922A923A92D5
:1401E4004A925A920A931A932A933A938A939A93AA93EA9367
:1401F800FA931FB61A924A935A93F89424B03324309227017A
:14020C002092260125B03324322C2224409026015090270136
:14022000422853285092270140922601C2018F5F914090933D
:1402340027018093260147B155274034E0E05E0751F0413491
:14024800E0E05E0779F14234E0E05E0709F4ACC039C1209065
:14025C00260130902701C1018C3FEFEF9E073CF084E090E06F
:140270008215930514F0AF9A03C085B38F7785BB20902601E6
:1402840030902701442437FC4094552447FC509430927F002E
:1402980020927E00509281004092800081E487B9369A10C127
:1402AC002090260130902701C1018C3FEFEF9E073CF084E0DF
:1402C00090E08215930514F0AE9A03C085B38F7B85BB82ED8B
:1402D40090E0E091A900FF27EE0FFF1FE80FF91F2090260165
:1402E80030902701318220822090260130902701309225011E
:1402FC00209224018091A9008F5F8093A900843109F04CC0F9
:14031000222433243092CF002092CE002092A9001AC082ED87
:1403240090E0E091A900FF27EE0FFF1FE80FF91F208031809A
:140338004090CE005090CF00420C531C5092CF004092CE0056
:14034C008091A9008F5F8093A9008091A900843110F324E1C2
:1403600030E00091CE001091CF000E941F151093CF000093CF
:14037400CE0022242092A9000030E0E01E071CF02092AF0084
:140388000FC081E08093AF008091CE009091CF008095909566
:14039C008F5F9F4F9093CF008093CE0082E487B9369A8EC0DA
:1403B00040912601509127014C3FEFEF5E073CF084E090E06A
:1403C4008417950714F0AD9A03C085B38F7D85BB8AEF90E073
:1403D800E091A800FF27EE0FFF1FE80FF91F20902601309011
:1403EC00270131822082209026013090270130922301209229
:1404000022018091A8008F5F8093A800843109F05BC0222454
:1404140033243092D1002092D0002092A8001AC08AEF90E04B
:14042800E091A800FF27EE0FFF1FE80FF91F20803180409036
:14043C00D0005090D100420C531C5092D1004092D000809108
:14045000A8008F5F8093A8008091A800843110F324E130E0C1
:140464000091D0001091D1000E941F151093D1000093D00004
:1404780022242092A8000030E0E01E0724F081E08093B00083
:14048C000FC022242092B0008091D0009091D10080959095D8
:1404A0008F5F9F4F9093D1008093D0008091D0009091D100C2
:1404B4008F3FE1E09E0734F081E08093AA0085B3807E85BB48
:1404C80080E487B978945991499119901FBEF991E991A991E8
:1404DC009991899139912991199109915990499039902990BC
:1404F000199018952A923A924A925A920A931A932A933A937E
:140504008A939A932FB62A92F8942EB4222009F050C085B307
:14051800807E85BB20906200309063004090600050906100EB
:14052C00420C531C5092610040926000209064003090650050
:140540002414350424F0309261002092600020906600309017
:14055400670040906000509061004214530424F030926100D7
:140568002092600086990CC022242092AC0020906600309008
:14057C00670030926100209260000FC02090AC00222059F415
:140590002090620030906300309261002092600081E0809379
:1405A400AC0020906000309061003BBC2ABC83E08EBD8091CA
:1405B800B1008F5F8093B100843691F422242092B10027E0DD
:1405CC0030E000916000109161000E941F151093B300009359
:1405E000B20081E08093B5002224332430926100209260005A
:1405F400789429902FBE99918991399129911991099159904C
:1406080049903990299018952A928A932FB62A92F89480B39D
:14061C008870883039F486E085BD979A81E08093A60005C035
:14063000222425BC24BC2092A600789429902FBE89912990D2
:1406440018950A921A922A923A924A925A926A927A928A9239
:140658009A920A931A932A933A938A939A93AA93BA93EA933D
:14066C00FA930FB60A920E946015F89486B38074803409F00F
:140680005BC086B38078803809F056C04090800050908100A2
:1406940020907E0030907F00220C331C441C551C3092830052
:1406A8002092820050928500409284004FEF57E060E070E048
:1406BC00241635064606570664F08FEF8093820087E080932B
:1406D000830080E080938400809385001CC041E058EF6FEF62
:1406E4007FEF4090840050908500209082003090830024162C
:1406F8003506460657065CF481E08093820088EF80938300B7
:14070C008FEF809384008093850040908400509085002090C3
:14072000820030908300309287002092860050928900409242
:14073400880083C72090C2003090C300C1018130E0E09E0712
:1407480029F18230E0E09E0731F18330E0E09E0739F1843054
:14075C00E0E09E0741F18530E0E09E0749F18630E0E09E0783
:1407700051F18730E0E09E0759F18830E0E09E0761F18930A5
:14078400E0E09E0769F18A30E0E09E0771F131C08DE78CBF71
:140798008BE883BF2CC085E68CBF8BE883BF27C081EA8CBFA4
:1407AC008CE883BF22C082E88CBF8CE883BF1DC082E68CBFA6
:1407C0008CE883BF18C083E48CBF8CE883BF13C084E28CBFAB
:1407D4008CE883BF0EC085E08CBF8CE883BF09C088EB8CBFA0
:1407E8008DE883BF04C080EB8CBF8DE883BF86B3807180313A
:1407FC0089F4409080005090810020907E0030907F0030928C
:14081000830020928200509285004092840039C44090800013
:140824005090810020907E0030907F0030926F0020926E00A1
:1408380050927100409270002090CA003090CB00222099F443
:14084C00332089F4409080005090810020907E0030907F00AA
:140860003092830020928200509285004092840010C4809169
:14087400CA009091CB008130E0E09E0749F4209024013090D2
:140888002501309225012092240196C08091CA009091CB005A
:14089C008230E0E09E0759F4209024013090250135942794A5
:1408B000309225012092240183C08091CA009091CB008430B7
:1408C400E0E09E0769F4209024013090250135942794359456
:1408D800279430922501209224016EC08091CA009091CB009D
:1408EC008830E0E09E0779F42090240130902501359427942F
:140900003594279435942794309225012092240157C08091F4
:14091400CA009091CB008031E0E09E0789F4209024013090F1
:140928002501359427943594279435942794359427943092C3
:14093C002501209224013EC08091CA009091CB008032E0E073
:140950009E0769F425E030E000912401109125010E94081540
:14096400109325010093240129C08091CA009091CB0080349A
:14097800E0E09E0769F426E030E000912401109125010E9474
:14098C000815109325010093240114C08091CA009091CB001E
:1409A0008038E0E09E0761F427E030E000912401109125013D
:1409B4000E9408151093250100932401209024013090250134
:1409C800442437FC4094552447FC50948090700090907100FB
:1409DC0060906E0070906F00621873088408950870926F00AB
:1409F00060926E0090927100809270008091BE009091BF00CF
:140A04008130E0E09E0759F41301240130929F0020929E0091
:140A18005092A1004092A000D0C08091BE009091BF008230E4
:140A2C00E0E09E07A9F4409070005090710020906E00309045
:140A40006F00220C331C441C551C30929F0020929E00509252
:140A5400A1004092A000B3C08091BE009091BF008430E0E0E5
:140A68009E07B1F482E090E0209170003091710000916E000C
:140A7C0010916F008A930E94741510939F0000939E003093D8
:140A9000A1002093A00095C08091BE009091BF008830E0E0E2
:140AA4009E07B1F483E090E0209170003091710000916E00CF
:140AB80010916F008A930E94741510939F0000939E0030939C
:140ACC00A1002093A00077C08091BE009091BF008031E0E0CB
:140AE0009E07B1F484E090E0209170003091710000916E0092
:140AF40010916F008A930E94741510939F0000939E00309360
:140B0800A1002093A00059C08091BE009091BF008032E0E0AB
:140B1C009E07B1F485E090E0209170003091710000916E0054
:140B300010916F008A930E94741510939F0000939E00309323
:140B4400A1002093A0003BC08091BE009091BF008034E0E08B
:140B58009E07B1F486E090E0209170003091710000916E0017
:140B6C0010916F008A930E94741510939F0000939E003093E7
:140B8000A1002093A0001DC08091BE009091BF008038E0E069
:140B94009E07A9F487E090E0209170003091710000916E00E2
:140BA80010916F008A930E94741510939F0000939E003093AB
:140BBC00A1002093A00086990AC080E080939A0080939B008D
:140BD00080939C0080939D00FBC02090C0003090C1002220C4
:140BE40061F4332051F480E080939A0080939B0080939C00A6
:140BF80080939D00E9C08091C0009091C1008130E0E09E07C7
:140C0C0089F4409070005090710020906E0030906F003092B7
:140C20009B0020929A0050929D0040929C00D0C08091C0008B
:140C34009091C1008230E0E09E07A9F4409070005090710085
:140C480020906E0030906F00559447943794279430929B00A4
:140C5C0020929A0050929D0040929C00B3C08091C0009091E6
:140C7000C1008430E0E09E07B1F482E090E02091700030913D
:140C8400710000916E0010916F008A930E940F1510939B00BB
:140C980000939A0030939D0020939C0095C08091C000909125
:140CAC00C1008830E0E09E07B1F483E090E0209170003091FC
:140CC000710000916E0010916F008A930E940F1510939B007F
:140CD40000939A0030939D0020939C0077C08091C000909107
:140CE800C1008031E0E09E07B1F484E090E0209170003091C6
:140CFC00710000916E0010916F008A930E940F1510939B0043
:140D100000939A0030939D0020939C0059C08091C0009091E8
:140D2400C1008032E0E09E07B1F485E090E020917000309187
:140D3800710000916E0010916F008A930E940F1510939B0006
:140D4C0000939A0030939D0020939C003BC08091C0009091CA
:140D6000C1008034E0E09E07B1F486E090E020917000309148
:140D7400710000916E0010916F008A930E940F1510939B00CA
:140D880000939A0030939D0020939C001DC08091C0009091AC
:140D9C00C1008038E0E09E07A9F487E090E02091700030910F
:140DB000710000916E0010916F008A930E940F1510939B008E
:140DC40000939A0030939D0020939C0040909C0050909D0056
:140DD80020909A0030909B008090A0009090A10060909E0063
:140DEC0070909F00620C731C841C951C409078005090790065
:140E00002090760030907700620C731C841C951C70928300AE
:140E140060928200909285008092840013012401309293008B
:140E28002092920050929500409294004090A0005090A100A4
:140E3C0020909E0030909F008090940090909500609092001A
:140E50007090930062187308840895087092770060927600FC
:140E640090927900809278002090C8003090C900C1018A30D8
:140E7800E0E09E0709F460C08AE090E0821593054CF080918E
:140E8C00C8009091C9008530E0E09E07D1F0FBC0A090C80012
:140EA000B090C900C5018F30E0E09E0709F481C08F30E0E08E
:140EB4009E070CF4ECC08091C8009091C9008431E0E09E07FC
:140EC80009F4ACC0E2C042E350E060E070E0409084005090F2
:140EDC008500209082003090830024163506460657065CF09E
:140EF00082E38093820080E0809383008093840080938500CF
:140F0400C6C04EEC5FEF6FEF7FEF4090840050908500209096
:140F180082003090830024163506460657060CF0B4C08EECF8
:140F2C00809382008FEF809383008093840080938500A9C070
:140F400044E650E060E070E0409084005090850020908200C8
:140F54003090830024163506460657065CF084E680938200DD
:140F680080E08093830080938400809385008DC04CE95FEF80
:140F7C006FEF7FEF4090840050908500209082003090830067
:140F900024163506460657060CF07BC08CE9809382008FEF70
:140FA40080938300809384008093850070C046E950E060E0A5
:140FB80070E04090840050908500209082003090830024166D
:140FCC003506460657065CF086E98093820080E080938300E7
:140FE000809384008093850054C04AE65FEF6FEF7FEF4090A0
:140FF4008400509085002090820030908300241635064606CA
:1410080057060CF042C08AE6809382008FEF8093830080934D
:14101C0084008093850037C048EC50E060E070E04090840065
:141030005090850020908200309083002416350646065706B4
:141044005CF088EC8093820080E080938300809384008093A3
:1410580085001BC048E35FEF6FEF7FEF409084005090850026
:14106C002090820030908300241635064606570654F488E32A
:14108000809382008FEF809383008093840080938500809173
:14109400CC009091CD008130E0E09E0749F4209022013090A8
:1410A8002301309223012092220196C08091CC009091CD0034
:1410BC008230E0E09E0759F420902201309023013594279481
:1410D000309223012092220183C08091CC009091CD0084308F
:1410E400E0E09E0769F4209022013090230135942794359432
:1410F800279430922301209222016EC08091CC009091CD0075
:14110C008830E0E09E0779F42090220130902301359427940A
:141120003594279435942794309223012092220157C08091D0
:14113400CC009091CD008031E0E09E0789F4209022013090C7
:1411480023013594279435942794359427943594279430929D
:14115C002301209222013EC08091CC009091CD008032E0E04B
:141170009E0769F425E030E000912201109123010E9408151C
:14118400109323010093220129C08091CC009091CD00803472
:14119800E0E09E0769F426E030E000912201109123010E9450
:1411AC000815109323010093220114C08091CC009091CD00F6
:1411C0008038E0E09E0761F427E030E0009122011091230119
:1411D4000E9408151093230100932201209022013090230114
:1411E800442437FC4094552447FC50948090840090908500AB
:1411FC00609082007090830062187308840895087092730057
:141210006092720090927500809274008091C4009091C5008E
:141224008130E0E09E0759F41301240130928B0020928A0091
:1412380050928D0040928C0094C08091C4009091C500823014
:14124C00E0E09E07A9F4409074005090750020907200309011
:141260007300559447943794279430928B0020928A00509252
:141274008D0040928C0077C08091C4009091C5008430E0E015
:141288009E07B1F482E090E0209174003091750000917200D8
:14129C00109173008A930E940F1510938B0000938A00309339
:1412B0008D0020938C0059C08091C4009091C5008830E0E012
:1412C4009E07B1F483E090E02091740030917500009172009B
:1412D800109173008A930E940F1510938B0000938A003093FD
:1412EC008D0020938C003BC08091C4009091C5008031E0E0FB
:141300009E07B1F484E090E02091740030917500009172005D
:14131400109173008A930E940F1510938B0000938A003093C0
:141328008D0020938C001DC08091C4009091C5008032E0E0DB
:14133C009E07A9F485E090E020917400309175000091720028
:14135000109173008A930E940F1510938B0000938A00309384
:141364008D0020938C0086990AC080E080938E0080938F001D
:141378008093900080939100FBC02090C6003090C700222020
:14138C0061F4332051F480E080938E0080938F00809390001A
:1413A00080939100E9C08091C6009091C7008130E0E09E0717
:1413B40089F4409074005090750020907200309073003092F8
:1413C8008F0020928E005092910040929000D0C08091C60006
:1413DC009091C7008230E0E09E07A9F44090740050907500C8
:1413F0002090720030907300559447943794279430928F00F9
:1414040020928E005092910040929000B3C08091C600909154
:14141800C7008430E0E09E07B1F482E090E020917400309183
:14142C00750000917200109173008A930E940F1510938F000B
:1414400000938E00309391002093900095C08091C600909193
:14145400C7008830E0E09E07B1F483E090E020917400309142
:14146800750000917200109173008A930E940F1510938F00CF
:14147C0000938E00309391002093900077C08091C600909175
:14149000C7008031E0E09E07B1F484E090E02091740030910C
:1414A400750000917200109173008A930E940F1510938F0093
:1414B80000938E00309391002093900059C08091C600909157
:1414CC00C7008032E0E09E07B1F485E090E0209174003091CE
:1414E000750000917200109173008A930E940F1510938F0057
:1414F40000938E0030939100209390003BC08091C600909139
:14150800C7008034E0E09E07B1F486E090E02091740030918E
:14151C00750000917200109173008A930E940F1510938F001A
:1415300000938E0030939100209390001DC08091C000909120
:14154400C1008038E0E09E07A9F487E090E02091700030915F
:14155800710000916E0010916F008A930E940F1510939B00DE
:14156C0000939A0030939D0020939C004090900050909100BE
:1415800020908E0030908F0080908C0090908D0060908A0007
:1415940070908B00620C731C841C951C40907C0050907D00C1
:1415A80020907A0030907B00620C731C841C951C70928700F3
:1415BC006092860090928900809288001301240130929700CC
:1415D00020929600509299004092980040908C0050908D0011
:1415E40020908A0030908B0080909800909099006090960087
:1415F80070909700621873088408950870927B0060927A0041
:14160C0090927D0080927C0085E090E0209188003091890045
:1416200000918600109187008A930E940F15109387000093D7
:14163400860030938900209388008091A200813091F42091FB
:1416480088003091890000918600109187000E946B151093B8
:14165C0087000093860030938900209388002090860030905D
:141670008700309261002092600042E050E060E070E04090F8
:14168400840050908500209082003090830024163506460633
:1416980057063CF081E08093A40022242092A50017C04EEFEC
:1416AC005FEF6FEF7FEF409084005090850020908200309065
:1416C0008300421553056405750534F022242092A40081E0E0
:1416D4008093A500369A78940E94551509900FBEF991E991F8
:1416E800B991A991999189913991299119910991999089901C
:1416FC007990699059904990399029901990099018952A92E9
:141710003A920A931A938A93AA93EA932FB62A92F894222465
:141724002EBC33243DBC2CBCAC9A2090A600222069F52090A3
:14173800A700222061F52090AA00222041F50091A200112721
:14174C000030010729F00130E0E01E0779F01DC080B38470B5
:14176000843029F485B3807F85BBA89A14C085B3807F85BBA0
:14177400A99A0FC0829905C085B3807F85BBAA9A08C085B3B4
:14178800807F85BBAB9A03C085B3807F85BB789429902FBEDD
:14179C00E991A9918991199109913990299018952A928A931F
:1417B0002FB62A92F894222425BC24BC82B38F7782BB80B346
:1417C4008870883041F42090A4002092A2002090A50020927D
:1417D800A30022242092A600789429902FBE8991299018958A
:1417EC001A922A923A927A920A931A938A939A93AA93EA935B
:14180000FA931FB61A92F8942CB02092BB002092AB002694DA
:141814002694269426942694269426942092AB00822D817067
:141828008093AB00813009F030C122242092BD002092B60036
:14183C000091B70011270030E0E01E070CF45BC18FE090E008
:14185000801791070CF455C184E590E0F801EE0FFF1FE80F5B
:14186400F91F25903490F10109948091BB00893921F481E04C
:141878008093B70042C18091BB008F3F09F03DC12224209206
:14188C00B70039C18091BB00803821F482E08093B70031C1E0
:1418A0008091BB008F3F09F02CC181E08093B70028C180918F
:1418B400BB00803821F483E08093B70020C18091BB008F3FF0
:1418C80009F01BC182E08093B70017C18091BB00803821F49A
:1418DC0084E08093B7000FC18091BB008F3F09F00AC183E039
:1418F0008093B70006C18091BB00803821F485E08093B7008B
:14190400FEC08091BB008F3F09F0F9C084E08093B700F5C0E2
:141918008091BB00803921F486E08093B700EDC08091BB0078
:14192C008F3F09F0E8C085E08093B700E4C08091BB008039E0
:1419400021F487E08093B700DCC08091BB008F3F09F0D7C087
:1419540086E08093B700D3C08091BB00803921F488E08093A7
:14196800B700CBC08091BB008F3F09F0C6C087E08093B700DF
:14197C00C2C08091BB00803921F489E08093B700BAC080917D
:14199000BB008F3F09F0B5C088E08093B700B1C08091BB00DD
:1419A400803921F48AE08093B700A9C08091BB008F3F09F031
:1419B800A4C089E08093B700A0C08091BB00803A21F48BE01E
:1419CC008093B70098C08091BB008F3F09F093C08AE0809382
:1419E000B7008FC08091BB00803A21F48CE08093B70087C0D5
:1419F4008091BB008F3F09F082C08BE08093B7007EC0809186
:141A0800BB00803A21F48DE08093B70076C08091BB008F3F39
:141A1C0009F071C08CE08093B7006DC08091BB00803A21F48E
:141A30008EE08093B70065C08091BB008F3F09F060C08DE025
:141A44008093B7005CC08091BB00803A21F48FE08093B700D4
:141A580054C08091BB008F3F09F04FC08EE08093B7004BC081
:141A6C008091BB008C3C31F422242092B7002092B50041C096
:141A80008091BB008F3F09F03CC08FE08093B70038C022244C
:141A94002092BC002092B7008091BB00873719F42092B60068
:141AA8002CC00091B60011270030010729F00130E0E01E0758
:141ABC0089F021C08091BB00843421F481E08093B60019C020
:141AD0008091BB008F30A9F422242092B60011C08091BB008F
:141AE400853531F422242092B6002092B40007C08091BB0068
:141AF8008F3019F481E08093B600789419901FBEF991E9914E
:141B0C00A99199918991199109917990399029901990189522
:141B2000B09904C081E08093690029C080916900813029F595
:141B340081E08093B40022242092BC0084E08093B600809183
:141B4800AD009091AE008730E0E09E0741F433243092AE00F5
:141B5C002092AD00209269000CC08091AD009091AE0001960B
:141B70009093AE008093AD002224209269000895B19904C0C4
:141B840081E080936A002BC080916A00813039F581E08093B6
:141B9800B40022242092BC0084E08093B6002090AD00309087
:141BAC00AE00222061F4332051F487E090E09093AE0080938D
:141BC000AD00222420926A000CC08091AD009091AE00019711
:141BD4009093AE008093AD00222420926A000895B29904C05E
:141BE80081E080936B0008C080916B00813021F481E080938C
:141BFC00680010D00895B39904C081E080936C0008C0809127
:141C10006C00813021F482E08093680001D0089581E08093CF
:141C2400B40022242092BC0084E08093B6002090AD003090FA
:141C3800AE00222011F4332029F1C1018130E0E09E0709F461
:141C4C005FC08230E0E09E0709F4ACC08330E0E09E0709F4D0
:141C6000E7C08430E0E09E0709F434C18530E0E09E0709F4A7
:141C74006FC18630E0E09E0709F4BCC18730E0E09E0709F47E
:141C8800F5C131C20091680011270130E0E01E0729F002300D
:141C9C00E0E01E07D9F025C28091C4009091C5008032E0E072
:141CB0009E0721F4222420926B0019C22090C4003090C5002F
:141CC400220C331C3092C5002092C400222420926B000BC262
:141CD8008091C4009091C5008130E0E09E0721F4222420921A
:141CEC006C00FFC12090C4003090C500369427943092C500B3
:141D00002092C400222420926C00F1C10091680011270130E1
:141D1400E0E01E0729F00230E0E01E07D9F0E5C12090C600C1
:141D28003090C700222031F4332021F4222420926B00D9C154
:141D3C002090C6003090C700369427943092C7002092C60010
:141D5000222420926B00CBC12090C6003090C700222061F4FC
:141D6400332051F4C10101969093C7008093C60022242092BF
:141D78006C00B9C18091C6009091C7008038E0E09E0721F480
:141D8C00222420926C00ADC12090C6003090C700220C331CF7
:141DA0003092C7002092C600222420926C009FC10091680071
:141DB40011270130E0E01E0729F00230E0E01E07D9F093C180
:141DC8008091BE009091BF008130E0E09E0721F42224209235
:141DDC006B0087C12090BE003090BF00369427943092BF004D
:141DF0002092BE00222420926B0079C18091BE009091BF0023
:141E04008038E0E09E0721F4222420926C006DC12090BE0098
:141E18003090BF00220C331C3092BF002092BE0022242092D1
:141E2C006C005FC10091680011270130E0E01E0729F0023084
:141E4000E0E01E07D9F053C12090C0003090C100222031F474
:141E5400332021F4222420926B0047C12090C0003090C100B6
:141E6800369427943092C1002092C000222420926B0039C18F
:141E7C002090C0003090C100222061F4332051F4C1010196D9
:141E90009093C1008093C000222420926C0027C18091C0006A
:141EA4009091C1008038E0E09E0721F4222420926C001BC1D6
:141EB8002090C0003090C100220C331C3092C1002092C000B3
:141ECC00222420926C000DC10091680011270130E0E01E0789
:141EE00029F00230E0E01E07D9F001C18091CC009091CD0068
:141EF4008130E0E09E0721F4222420926B00F5C02090CC001B
:141F08003090CD00369427943092CD002092CC0022242092AE
:141F1C006B00E7C08091CC009091CD008038E0E09E0721F4A2
:141F3000222420926C00DBC02090CC003090CD00220C331C18
:141F44003092CD002092CC00222420926C00CDC00091680092
:141F580011270130E0E01E0729F00230E0E01E07D9F0C1C0AD
:141F6C002090CA003090CB00222031F4332021F42224209295
:141F80006B00B5C02090CA003090CB00369427943092CB0056
:141F94002092CA00222420926B00A7C02090CA003090CB00EE
:141FA800222061F4332051F4C10101969093CB008093CA00D2
:141FBC00222420926C0095C08091CA009091CB008038E0E019
:141FD0009E0721F4222420926C0089C02090CA003090CB0091
:141FE400220C331C3092CB002092CA00222420926C007BC0C4
:141FF8000091680011270130E0E01E0729F00230E0E01E075E
:14200C00D1F06FC08091C2009091C3008130E0E09E0721F4EE
:14202000222420926B0063C08091C2009091C30001979093B4
:14203400C3008093C200222420926B0056C08091C200909193
:14204800C3008A30E0E09E0721F4222420926C004AC080910E
:14205C00C2009091C30001969093C3008093C2002224209280
:142070006C003DC00091680011270130E0E01E0729F0023061
:14208400E0E01E07D1F031C08091C8009091C9008530E0E079
:142098009E0721F4222420926B0025C08091C8009091C9006F
:1420AC0005979093C9008093C800222420926B0018C0809171
:1420C000C8009091C9008431E0E09E0721F4222420926C00C7
:1420D4000CC08091C8009091C90005969093C9008093C80007
:1420E800222420926C000895B59904C081E080936D0081C0AF
:1420FC0080916D00813009F07CC0E199FECF222433243FBA8F
:142110002EBA2090C4003090C5002DBA84E08CBB82E08CBB9F
:14212400E199FECF81E090E09FBB8EBB2090C6003090C700EF
:142138002DBA84E08CBB82E08CBBE199FECF82E090E09FBBE5
:14214C008EBB2090BE003090BF002DBA84E08CBB82E08CBB0E
:14216000E199FECF83E090E09FBB8EBB2090C0003090C100BD
:142174002DBA84E08CBB82E08CBBE199FECF84E090E09FBBA7
:142188008EBB2090CC003090CD002DBA8CBB82E08CBBE199A0
:14219C00FECF85E090E09FBB8EBB2090CA003090CB002DBAFE
:1421B00084E08CBB82E08CBBE199FECF86E090E09FBB8EBB07
:1421C4002090C2003090C3002DBA84E08CBB82E08CBBE1995D
:1421D800FECF87E090E09FBB8EBB2090C8003090C9002DBAC4
:1421EC0084E08CBB82E08CBBE199FECF222420926D00089542
:142200000E94A400B6992CC086B38078803841F588E090E052
:142214009093C5008093C40081E09093C7008093C6009093B0
:14222800C3008093C20084E19093C9008093C80084E0909357
:14223C00BF008093BE0080E29093C1008093C00081E0909361
:14225000CD008093CC009093CB008093CA00B0C0B699AEC0D6
:14226400B799ACC0E099FECF222433243FBA2EBA81E08CBB3E
:142278002DB233243092C5002092C400E099FECF81E090E008
:14228C009FBB8EBB8CBB2DB233243092C7002092C600E099A4
:1422A000FECF82E090E09FBB8EBB81E08CBB2DB23324309248
:1422B400BF002092BE00E099FECF83E090E09FBB8EBB81E0CA
:1422C8008CBB2DB233243092C1002092C000E099FECF84E0E6
:1422DC0090E09FBB8EBB81E08CBB2DB233243092CD002092BC
:1422F000CC00E099FECF85E090E09FBB8EBB81E08CBB2DB2C9
:1423040033243092CB002092CA00E099FECF86E090E09FBBEF
:142318008EBB81E08CBB2DB233243092C3002092C200E09918
:14232C00FECF87E090E09FBB8EBB81E08CBB2DB233243092B6
:14234000C9002092C800E099FECF3AC080B38870883041F4EE
:142354002090A4002092A2002090A5002092A30086990BC039
:14236800DBDB0ADC3BDC49DCBFDE81E08093A700222422BAAF
:14237C000CC022242092A7002090AA00222019F480E182BB9B
:1423900002C080E282BB8091AA00813039F48091A7008130D6
:1423A40019F422242092AA008091B400813009F407D080911B
:1423B800B500813009F416D0C5CF08958BB18072803279F44A
:1423CC0086990DC02090BC00222049F481E08093BC002224B0
:1423E0002092BD002092B700B1D108958BB18072803299F485
:1423F40080B38074803479F42090BD00222059F481E080931D
:14240800B4008093BD0022242092BC002092B60001D00895B2
:14241C004A935A934091B70055274030E0E05E070CF48BC1FD
:142430008FE090E0841795070CF485C184E790E0FA01EE0F69
:14244400FF1FE80FF91F25903490F101099489E98CB977C160
:142458002CE030E00091B2001091B3000E9480151093B9002A
:14246C000093B800C80180689093B9008093B8001C012092EA
:14248000BA008CB960C12090B2003090B300232C33243092EB
:14249400B9002092B800C1018F7090709093B9008093B800A9
:1424A80080689093B9008093B8001C012092BA008CB945C1BD
:1424BC002090B2003090B300369427943694279436942794A8
:1424D000369427943092B9002092B800C1018F7090709093AA
:1424E400B9008093B80080689093B9008093B8001C01209202
:1424F800BA008CB924C12090B2003090B3003092B9002092EA
:14250C00B8008091B8009091B9008F7090709093B900809372
:14252000B80080689093B9008093B8001C012092BA008CB992
:1425340008C12CE030E00091D0001091D1000E940815109379
:14254800B9000093B800C80180699093B9008093B8001C0105
:14255C002092BA008CB9F1C02090D0003090D100232C332452
:1425700027FC30943092B9002092B800C1018F7090709093A7
:14258400B9008093B80080699093B9008093B8001C01209260
:14259800BA008CB9D4C02090D0003090D1003594279435943E
:1425AC00279435942794359427943092B9002092B800C101B1
:1425C0008F7090709093B9008093B80080699093B900809389
:1425D400B8001C012092BA008CB9B3C02090D0003090D100E9
:1425E8003092B9002092B8008091B8009091B9008F70907058
:1425FC009093B9008093B80080699093B9008093B8001C0177
:142610002092BA008CB997C02090B00033243092B9002092CA
:14262400B8008091B8009091B90080699093B9008093B800B7
:142638008CB985C02CE030E00091CE001091CF000E9408155A
:14264C001093B9000093B800C801806A9093B9008093B80079
:142660001C012092BA008CB96EC02090CE003090CF00232C0E
:14267400332427FC30943092B9002092B800C1018F7090706E
:142688009093B9008093B800806A9093B9008093B8001C01E9
:14269C002092BA008CB951C02090CE003090CF0035942794D7
:1426B0003594279435942794359427943092B9002092B800A5
:1426C400C1018F7090709093B9008093B800806A9093B900D4
:1426D8008093B8001C012092BA008CB930C02090CE00309027
:1426EC00CF003092B9002092B8008091B8009091B9008F7084
:1427000090709093B9008093B800806A9093B9008093B8008D
:142714001C012092BA008CB914C02090AF0033243092B900DE
:142728002092B8008091B8009091B900806A9093B9008093B7
:14273C00B8008CB902C08CEC8CB95991499108950091B60065
:1427500011270030010759F00130E0E01E0709F4C4C00430F1
:14276400E0E01E0709F44FC150C12090AD003090AE00222051
:1427780011F4332029F1C1018130E0E09E0709F433C0823061
:14278C00E0E09E0709F442C08330E0E09E0709F451C08430FB
:1427A000E0E09E0709F460C08530E0E09E0709F46FC08630A7
:1427B400E0E09E0709F47EC08730E0E09E0709F47EC023C136
:1427C8002090C4003090C50036942794369427943694279475
:1427DC00369427942092BA00822D8F708093BA008CB90FC168
:1427F0002090C6003090C70036942794369427943694279449
:14280400369427942092BA00822D80618093BA008CB9FBC072
:142818002090BE003090BF0036942794369427943694279430
:14282C00369427942092BA00822D80628093BA008CB9E7C05D
:142840002090C0003090C10036942794369427943694279404
:14285400369427942092BA00822D80638093BA008CB9D3C048
:142868002090CC003090CD00369427943694279436942794C4
:14287C00369427942092BA00822D80648093BA008CB9BFC033
:142890002090CA003090CB00369427943694279436942794A0
:1428A400369427942092BA00822D80658093BA008CB9ABC01E
:1428B80080E68093BA008CB9A6C02090C8003090C900369463
:1428CC0027943694279436942794369427942092BA00822D93
:1428E00080678093BA008CB992C02090AD003090AE0022208C
:1428F40011F4332019F1C1018130E0E09E0741F18230E0E0F2
:142908009E0789F18330E0E09E0709F439C08430E0E09E0775
:14291C0009F441C08530E0E09E0709F449C08630E0E09E076E
:1429300009F451C08730E0E09E0709F459C067C08091C40057
:142944009091C5008F7090708093BA008CB95DC08091C60094
:142958009091C7008F7090708093BA0080618093BA008CB9C4
:14296C0050C08091BE009091BF008F7090708093BA008062EA
:142980008093BA008CB943C08091C0009091C1008F7090707C
:142994008093BA0080638093BA008CB936C08091CC00909179
:1429A800CD008F7090708093BA0080648093BA008CB929C0A3
:1429BC008091CA009091CB008F7090708093BA00806580937C
:1429D000BA008CB91CC08091C2009091C3008F70907080934F
:1429E400BA0080668093BA008CB90FC08091C8009091C9009B
:1429F8008F7090708093BA0080678093BA008CB902C087E7D6
:142A0C008CB90895222321F0159507952A95FACF08950F9272
:142A20000990002031F035952795179507950A94F8CF0F90F6
:142A340008956894DA92D12E04C0E894DA92D12ED32617FFD0
:142A480004C0109500950F5F1F4F37FF04C0309520952F5F9E
:142A5C003F4F0E943C15D7FE04C0109500950F5F1F4FD990CD
:142A70000895689401C0E894EA92FA928A93EE24FF2480E1C1
:142A8400000F111FEE1CFF1CE216F30618F0E21AF30A039550
:142A98008A95A1F716F40E2D1F2D8991F990E9900895A990F0
:142AAC00B990C990D990E990F99049915991699179910895A4
:142AC0007A936A935A934A93FA92EA92DA92CA92BA92AA92D6
:142AD400089500951095209530950F5F1F4F2F4F3F4F089518
:142AE8000F920990002031F0000F111F221F331F0A94F8CF28
:122AFC000F900895222321F0169507952A95FACF0895CA
:00000001FF
