:040000000C94DB0081
:040028000C941C0117
:040034000C94900197
:14005400C904EF04090529054C0572058C05AC05CF05ED05CC
:1400680013062D064D0670068E0600000000000000000000DB
:14007C00000000000000000000000000000000000000000070
:1400900000000000000008000100000000000400200000002F
:1400A400000001000100000000000100140000000008042401
:1400B8002F242F242F080924282A282A28090222222A292A92
:1400CC002B252424252528222D2A282520242F2A2A2A252218
:1400E000220D0827262625272228202321222E232125252C5E
:1400F40027232D080824220C0024292C27232D0C09242109CC
:14010800002621262C26262621232D0909262426252627274C
:14011C0022262526250D0025202C27232D0D0924222B2F0C60
:1401300000252426252B2A27292E262B282B2928202B2E26C0
:1401440021272026212B2C26252B2F27200904242B27202BE7
:140158002F232D2321222F0904252427202B2F232D09042407
:14016C002B27202B2D232D0904252427202B2D232D090424EF
:140180002B2E232B2F232D0904242B2E232B2D232D090527BB
:14019400242B2A232D090A2B2C2623000009042429262D230B
:0D01A8002D090A24210000000000000000C5
:1401B600CFE5D8E0CDBFDEBFCE51D0400AEA08830024E3EA01
:1401CA00F1E011E0ED3AF10711F00192FBCF0083E2E7F0E0C6
:1401DE00A0E6B0E011E000E00BBFE53BF10721F0C89531960F
:1401F2000D92F9CF0E94C507FFCF22242BBA8FEF8ABB28BA86
:1402060087BB25BA84BB22BA81BB0895222423BE22BE8DE754
:14021A008CBF8BE083BF089522242AB82BB88EE880BD83E317
:14022E0089B920BC88E98AB908952A923A920A931A938A935E
:140242009A93AA93EA932FB62A92F89400916100112700303A
:140256000107A1F00130E0E01E0709F00FC08091AB018F5F72
:14026A008093AB012090AA01821530F081E080936300222492
:14027E002092AB01809167008130C1F480916A0090916B0029
:14029200019690936B0080936A00883EE3E09E0759F481E0DA
:1402A60080936600222420926700332430926B0020926A00CC
:1402BA0080916800813019F580916C0090916D000196909333
:1402CE006D0080936C00883EE3E09E07B1F48091A2018130F8
:1402E20039F481E08093660022242092A20103C083E080932D
:1402F6006600222420926800332430926D0020926C0078947E
:14030A0029902FBEE991A9919991899119910991399029907B
:14031E0018950A921A922A923A924A925A926A927A928A9262
:140332009A920A931A932A933A938A939A93AA93BA93EA9366
:14034600FA930FB60A92F8942CB020929D0133243092830061
:14035A002092820027E030E000918200109183000E94AC0EB1
:14036E001093830000938200C80181709070909383008093CD
:1403820082008130E0E09E0731F52090A101222029F481E097
:140396008093A1018093A20120909F012220B9F480919D01FA
:1403AA00893951F481E080939F01222420929E0189E9809308
:1403BE00A00125C0222420929E0120929F018FEF8093A0018A
:1403D2001CC0C2D21AC08091A101813039F422242092A101A2
:1403E60081E08093A20103C081E08093A20180919D018737A5
:1403FA0039F4222420929E0187E78093A00101C018D0789454
:14040E0009900FBEF991E991B991A991999189913991299124
:140422001991099199908990799069905990499039902990FA
:1404360019900990189500919E0111270030010731F00130D1
:14044A00E0E01E0709F423C182C220909D012092A200822D43
:14045E00807F8093A100082F11270033E0E01E0709F487C00C
:1404720080E390E080179107A4F00031E0E01E0709F449C0C4
:1404860080E190E08017910724F00030010739F1F6C0003204
:14049A00E0E01E0709F455C0F0C00035E0E01E0709F49DC033
:1404AE0080E590E08017910734F00034E0E01E0709F479C0C3
:1404C200E0C00036E0E01E0709F4A7C00036E0E01E070CF4EC
:1404D600D6C00037E0E01E0709F4B7C0D0C08091A2008F70AA
:1404EA008093A200282E3324220C331C220C331C220C331C25
:1404FE00220C331C30927F0020927E0081E080939E0184E481
:140512008093A001BCC08091A2008F708093A200282E332491
:14052600220C331C220C331C220C331C220C331C309281008A
:14053A002092800081E080939E0184E48093A001A2C08091D9
:14054E00A2008F708093A200282E3324220C331C220C331C9C
:14056200220C331C220C331C309289002092880081E0809392
:140576009E0184E48093A00188C08091A2008F708093A20007
:14058A00282E3324220C331C220C331C220C331C220C331CBC
:14059E0030928B0020928A0081E080939E0184E48093A00191
:1405B2006EC08091A2008F708093A200282E3324220C331C76
:1405C600220C331C220C331C220C331C309291002092900015
:1405DA0081E080939E0184E48093A00154C08091A2008F7018
:1405EE008093A200282E3324220C331C220C331C220C331C20
:14060200220C331C309293002092920081E080939E0184E453
:140616008093A0013AC08091A2008F708093A200282E33240E
:14062A00220C331C220C331C220C331C220C331C309299006D
:14063E002092980081E080939E0184E48093A00120C080913E
:14065200A2008F708093A200282E3324220C331C220C331C97
:14066600220C331C220C331C30929B0020929A0081E0809369
:14067A009E0184E48093A00106C0222420929E018FE08093D2
:14068E00A00122242092A20060C120909D012092A200822DAB
:1406A200807F8093A100082F11270033E0E01E0709F49FC0AE
:1406B60080E390E080179107A4F00031E0E01E0709F451C076
:1406CA0080E190E08017910724F00030010739F138C100327B
:1406DE00E0E01E0709F465C032C10035E0E01E0709F4C5C072
:1406F20080E590E08017910734F00034E0E01E0709F499C05D
:1407060022C10036E0E01E0709F4D7C00036E0E01E070CF432
:14071A0018C10037E0E01E0709F4F1C012C18091A2008F70A3
:14072E008093A200282E332440907E0050907F0042285328C3
:1407420050927F0040927E001201309285002092840022241C
:14075600332430927F0020927E0085E58093A00120929E0158
:14076A00F6C08091A2008F708093A200282E33244090800061
:14077E00509081004228532850928100409280001201309297
:1407920087002092860022243324309281002092800085E518
:1407A6008093A00120929E01D4C08091A2008F708093A2003F
:1407BA00282E3324409088005090890042285328509289006D
:1407CE0040928800120130928D0020928C00222433243092BE
:1407E20089002092880085E58093A00120929E01B2C080914E
:1407F600A2008F708093A200282E332440908A0050908B0027
:14080A004228532850928B0040928A00120130928F00209216
:14081E008E002224332430928B0020928A0085E58093A001F4
:1408320020929E0190C08091A2008F708093A200282E3324FD
:14084600409090005090910042285328509291004092900013
:14085A00120130929500209294002224332430929100209238
:14086E00900085E58093A00120929E016EC08091A2008F7097
:140882008093A200282E332440909200509093004228532846
:1408960050929300409292001201309297002092960022247B
:1408AA003324309293002092920085E58093A00120929E01DB
:1408BE004CC08091A2008F708093A200282E3324409098009E
:1408D2005090990042285328509299004092980012013092FA
:1408E6009D0020929C0022243324309299002092980020921F
:1408FA00A20085E58093A00120929E0128C08091A2008F703F
:14090E008093A200282E332440909A0050909B0042285328A9
:1409220050929B0040929A00120130929F0020929E002224CE
:14093600332430929B0020929A0085E58093A00120929E013E
:14094A0006C081E080939E018FE08093A00108954A935A9336
:14095E0040919F0155274130E0E05E070CF4E8C18FE090E07A
:14097200841795070CF4E2C184E590E0FA013197EE0FFF1FE0
:14098600E80FF91F25903490F101099420909D012092A200A4
:14099A00822D807F8093A1008038A9F4822D8F708093A2002F
:1409AE002CE030E0082F11270E94A50E109375000093740036
:1409C20082E080939F0180E88093A001B7C181E080939F0164
:1409D6008FEF8093A001B0C180919D018F708093A200282EB1
:1409EA003324322C222440907400509075004228532850929E
:1409FE0075004092740083E080939F0180E88093A00196C1A1
:140A120080919D018F708093A200282E3324220C331C220C15
:140A2600331C220C331C220C331C4090740050907500422870
:140A3A005328509275004092740084E080939F0180E88093FE
:140A4E00A00176C180919D018F708093A200282E33244090DC
:140A6200740050907500422853285092750040927400120122
:140A7600309273002092720022243324309275002092740019
:140A8A0085E080939F0180E88093A00153C120909D01209210
:140A9E00A200822D807F8093A1008039A9F4822D8F70809329
:140AB200A2002CE030E0082F11270E94A50E10937B000093FD
:140AC6007A0086E080939F0180E98093A00134C185E08093FF
:140ADA009F018FEF8093A0012DC180919D018F708093A200E5
:140AEE00282E3324322C222440907A0050907B004228532819
:140B020050927B0040927A0087E080939F0180E98093A001FF
:140B160013C180919D018F708093A200282E3324220C331C6A
:140B2A00220C331C220C331C220C331C40907A0050907B009B
:140B3E004228532850927B0040927A0088E080939F0180E991
:140B52008093A001F3C080919D018F708093A200282E332418
:140B660040907A0050907B004228532850927B0040927A0048
:140B7A00120130927700209276002224332430927B00209267
:140B8E007A0089E080939F0180E98093A001D0C02CB0209282
:140BA200A000822D8F708093A000282E882311F0813059F43E
:140BB6008AE080939F0180E98093A0012090A0002092A90145
:140BCA00B9C089E080939F018FEF8093A001B2C020909D0190
:140BDE002092A200822D807F8093A100803AA9F4822D8F7048
:140BF2008093A2002CE030E0082F11270E94A50E10937D003A
:140C060000937C008BE080939F0180EA8093A00193C08AE0D2
:140C1A0080939F018FEF8093A0018CC080919D018F708093D4
:140C2E00A200282E3324322C222440907C0050907D004228AC
:140C4200532850927D0040927C008CE080939F0180EA8093DA
:140C5600A00172C080919D018F708093A200282E3324220C79
:140C6A00331C220C331C220C331C220C331C40907C00509084
:140C7E007D004228532850927D0040927C008DE080939F0133
:140C920080EA8093A00152C080919D018F708093A200282E65
:140CA600332440907C0050907D004228532850927D00409224
:140CBA007C00120130927900209278002224332430927D0056
:140CCE0020927C008EE080939F0180EA8093A0012FC02CB0DA
:140CE2002092A000822D8F708093A000282E882311F0813098
:140CF60059F48FE080939F0180EA8093A0012090A00020925B
:140D0A00A80118C08EE080939F018FEF8093A00111C080911F
:140D1E009D018C3C39F4222420929F018CEC8093A00106C0A4
:140D32008FE080939F018FEF8093A0015991499108958BB1BC
:140D46008072803231F42090A0012CB822242092A001089565
:140D5A0020906100222039F581E08093610000916200112704
:140D6E000130E0E01E0749F00230E0E01E0761F00330E0E0C7
:140D82001E0779F014C082E38093AA0122242092AB010DC067
:140D960085E08093AA0122242092AB0106C081E08093AA019D
:140DAA0022242092AB0180916100813009F049C043C00091D8
:140DBE00630011270030010709F43CC00130E0E01E0709F046
:140DD20037C02090600025BA81E08093AC0105C08091AC0183
:140DE6008F5F8093AC0184E62090AC018215B0F7AE9A81E09D
:140DFA008093AC0105C08091AC018F5F8093AC0184E62090DA
:140E0E00AC018215B0F785B38F7B85BB81E08093AC0105C07D
:140E22008091AC018F5F8093AC0184E62090AC018215B0F74B
:140E3600222425BA209261002092630080916100813009F43B
:140E4A00B8CF08954A935A934091640055274030450709F43C
:140E5E002EC04130E0E05E0709F432C04230E0E05E0709F479
:140E720036C04330E0E05E0709F43AC04430E0E05E0709F451
:140E86003EC04530E0E05E0709F442C04630E0E05E0709F429
:140E9A0046C04730E0E05E0709F44AC04830E0E05E0709F401
:140EAE004EC04930E0E05E0709F452C059C083E28093600084
:140EC2004BDF80E28093600047DF50C083E28093600042DFEE
:140ED60081E2809360003EDF47C083E28093600039DF82E2BA
:140EEA008093600035DF3EC083E28093600030DF83E2809310
:140EFE0060002CDF35C083E28093600027DF84E280936000C9
:140F120023DF2CC083E2809360001EDF85E2809360001ADF35
:140F260023C083E28093600015DF86E28093600011DF1AC063
:140F3A0083E2809360000CDF87E28093600008DF11C083E2E7
:140F4E008093600003DF88E280936000FFDE08C083E2809340
:140F62006000FADE89E280936000F6DE599149910895F894A4
:140F760042D94CD953D9222425BE2BBE82E089BF7894089596
:140F8A00F4DF3FC020906500222059F582E08093600081E0A6
:140F9E0080936200DBDE82E08093600083E080936200D4DEB2
:140FB20088E080936000D0DE222420926000CCDE8CE0809321
:140FC6006000C8DE22242092600082E080936200C1DE86E0DD
:140FDA008093600083E080936200BADE81E080936500809136
:140FEE008200909183008130E0E09E0711F409D001C058D2EA
:141002002090A001222009F09CDEC0CF08950E94920E409195
:14101600660055274030450721F14130E0E05E0709F43EC085
:14102A004230E0E05E0709F448C04330E0E05E0709F46AC057
:14103E004430E0E05E0709F4A2C04530E0E05E0709F4F7C058
:141052004630E0E05E0709F444C14A30E0E05E0709F424C26B
:1410660023C222242092690010C083EA90E0E0916900FF2783
:14107A00E80FF91F2080209260006ADE809169008F5F8093DE
:14108E006900809169008C3360F381E0809367008AE0809301
:1410A200660004C281E08093620022242092600053DE81E04E
:1410B600809360004FDE82E080936600F5C12224209260009D
:1410CA0047DE8CE08093600043DE83E080936200222420921D
:1410DE00690010C08FED90E0E0916900FF27E80FF91F20802A
:1410F2002092600031DE809169008F5F80936900809169006B
:141106008E3360F383E080936600CEC124E630E00091720039
:14111A00109173000E94FE0D009370002AE030E000917200E0
:14112E00109173000E94FE0D2AE030E00E94FC0D00936F0025
:141142002AE030E000917200109173000E94FC0D00936E00BC
:1411560089E080936000FEDD85E080936000FADD20907000FF
:14116A00209264006FDE20906F00209264006ADE20906E0073
:14117E002092640065DE84E08093660091C124E630E000912A
:141192007600109177000E94FE0D009370002AE030E0009160
:1411A6007600109177000E94FE0D2AE030E00E94FC0D0093A2
:1411BA006F002AE030E000917600109177000E94FC0D00933B
:1411CE006E008CE080936000C1DD83E080936000BDDD8091A1
:1411E200A901813049F488E280936000B5DD80E2809360001D
:1411F600B1DD08C082E280936000ACDD8DE280936000A8DDC8
:14120A0020907000209264001DDE82E2809360009FDD8CE2DE
:14121E00809360009BDD20906F002092640010DE20906E0090
:14123200209264000BDE85E08093660037C124E630E0009128
:141246007800109179000E94FE0D009370002AE030E00091A7
:14125A007800109179000E94FE0D2AE030E00E94FC0D0093E9
:14126E006F002AE030E000917800109179000E94FC0D009382
:141282006E0088E08093600067DD83E08093600063DD8091A4
:14129600A801813049F488E2809360005BDD80E280936000C3
:1412AA0057DD08C082E28093600052DD8DE2809360004EDD21
:1412BE002090700020926400C3DD20906F0020926400BEDD76
:1412D20020906E0020926400B9DD86E080936600E5C0209109
:1412E60076003091770000917800109179000E94820E1801D8
:1412FA00442455243092A4012092A3015092A6014092A50141
:14130E0084E690E0A0E0B0E081019201BA93AA939A938A93F8
:141322000E94180E1093A4010093A3013093A6012093A501AD
:141336008091A801813061F48091A901813021F481E08093EE
:14134A00A7010FC022242092A7010BC02090A901222021F4FC
:14135E0081E08093A70103C022242092A70188EE93E0A0E093
:14137200B0E02091A5013091A6010091A3011091A401BA9350
:14138600AA939A938A930E94180E0093710084E690E0A0E0A6
:14139A00B0E02091A5013091A6010091A3011091A401BA9328
:1413AE00AA939A938A930E94180E8AE090E0A0E0B0E0BA93A5
:1413C200AA939A938A930E941A0E009370008AE090E0A0E069
:1413D600B0E02091A5013091A6010091A3011091A401BA93EC
:1413EA00AA939A938A930E94180E8AE090E0A0E0B0E0BA9369
:1413FE00AA939A938A930E941A0E00936F008AE090E0A0E02E
:14141200B0E02091A5013091A6010091A3011091A401BA93AF
:14142600AA939A938A930E941A0E00936E008DE08093600080
:14143A008FDC83E0809360008BDC8091A701813049F488E2E5
:14144E008093600083DC80E2809360007FDC08C082E2809349
:1414620060007ADC8DE28093600076DC209071002092640055
:14147600EBDC2090700020926400E6DC20906F00209264006E
:14148A00E1DC20906E0020926400DCDC8AE08093660081E061
:14149E00809368002224332430926D0020926C000C94970E90
:1414B2004A935A9340916600552740304507D1F04130E0E0FB
:1414C6005E0709F434C04230E0E05E0709F43EC04330E0E0F7
:1414DA005E0709F460C04030E0E05E070CF484C34A30E0E066
:1414EE005E0709F47FC37EC322242092690010C083EA90E0F7
:14150200E0916900FF27E80FF91F20802092600023DC809104
:1415160069008F5F80936900809169008C3360F381E08093EE
:14152A0067008AE0809366005FC381E0809362002224209273
:14153E0060000CDC81E08093600008DC82E08093660050C3AB
:1415520022242092600000DC8CE080936000FCDB83E0809325
:14156600620022242092690010C08DE191E0E0916900FF27FF
:14157A00E80FF91F208020926000EADB809169008F5F80935C
:14158E00690080916900823260F383E08093660029C34091C6
:1415A200A10055274033E0E05E0709F44EC180E390E0841706
:1415B6009507A4F04031E0E05E0709F488C080E190E08417AA
:1415CA00950724F04030450739F10EC34032E0E05E0709F412
:1415DE00D8C008C34035E0E05E0709F4ECC180E590E08417E2
:1415F200950734F04034E0E05E0709F484C1F8C24036E0E05A
:141606005E0709F43AC24036E0E05E070CF4EEC24037E0E0F0
:14161A005E0709F489C2E8C222242092690010C08FE391E051
:14162E00E0916900FF27E80FF91F2080209260008DDB80916E
:1416420069008F5F80936900809169008E3060F324E630E01C
:1416560000918400109185000E94FE0D009370002AE030E07B
:14166A0000918400109185000E94FE0D2AE030E00E94FC0DBF
:14167E0000936F002AE030E000918400109185000E94FC0D56
:1416920000936E0089E0809360005EDB8AE0809360005ADB1C
:1416A60020906F0020926400CFDB20906E0020926400CADB78
:1416BA008AE08093660081E0809368002224332430926D0091
:1416CE0020926C008FC222242092690010C08DE491E0E09115
:1416E2006900FF27E80FF91F20802092600034DB809169001B
:1416F6008F5F80936900809169008A3060F324E630E0009144
:14170A008600109187000E94FE0D009370002AE030E00091C2
:14171E008600109187000E94FE0D2AE030E00E94FC0D009304
:141732006F002AE030E000918600109187000E94FC0D00939D
:141746006E0089E08093600005DB88E08093600001DB2090FE
:14175A0070002092640076DB20906F002092640071DB209073
:14176E006E00209264006CDB8AE08093660081E080936800DD
:141782002224332430926D0020926C0031C222242092690015
:1417960010C087E591E0E0916900FF27E80FF91F2080209231
:1417AA006000D6DA809169008F5F80936900809169008A3003
:1417BE0060F324E630E000918C0010918D000E94FE0D00931F
:1417D20070002AE030E000918C0010918D000E94FE0D2AE077
:1417E60030E00E94FC0D00936F002AE030E000918C0010915A
:1417FA008D000E94FC0D00936E0089E080936000A7DA88E0DD
:14180E0080936000A3DA209070002092640018DB20906F008E
:141822002092640013DB20906E00209264000EDB8AE0809314
:14183600660081E0809368002224332430926D0020926C0072
:14184A00D3C122242092690010C081E691E0E0916900FF27ED
:14185E00E80FF91F20802092600078DA809169008F5F8093E8
:141872006900809169008A3060F324E630E000918E00109198
:141886008F000E94FE0D009370002AE030E000918E00109135
:14189A008F000E94FE0D2AE030E00E94FC0D00936F002AE02D
:1418AE0030E000918E0010918F000E94FC0D00936E0089E0B2
:1418C2008093600049DA88E08093600045DA209070002092B0
:1418D6006400BADA20906F0020926400B5DA20906E00209272
:1418EA006400B0DA8AE08093660081E08093680022243324A0
:1418FE0030926D0020926C0075C122242092690010C08BE6B1
:1419120091E0E0916900FF27E80FF91F2080209260001ADA9B
:14192600809169008F5F80936900809169008A3060F324E638
:14193A0030E000919400109195000E94FE0D009370002AE074
:14194E0030E000919400109195000E94FE0D2AE030E00E94B1
:14196200FC0D00936F002AE030E000919400109195000E944F
:14197600FC0D00936E0089E080936000EBD988E080936000D8
:14198A00E7D920907000209264005CDA20906F0020926400E8
:14199E0057DA20906E002092640052DA8AE08093660081E060
:1419B200809368002224332430926D0020926C0017C122249E
:1419C6002092690010C085E791E0E0916900FF27E80FF91F36
:1419DA00208020926000BCD9809169008F5F809369008091BD
:1419EE0069008A3060F324E630E000919600109197000E9454
:141A0200FE0D009370002AE030E000919600109197000E94A7
:141A1600FE0D2AE030E00E94FC0D00936F002AE030E000913F
:141A2A009600109197000E94FC0D00936E0089E08093600052
:141A3E008DD988E08093600089D92090700020926400FED9E4
:141A520020906F0020926400F9D920906E0020926400F4D978
:141A66008AE08093660081E0809368002224332430926D00E1
:141A7A0020926C00B9C022242092690010C08FE791E0E09138
:141A8E006900FF27E80FF91F2080209260005ED98091690043
:141AA2008F5F8093690080916900803160F324E630E000919D
:141AB6009C0010919D000E94FE0D009370002AE030E00091E7
:141ACA009C0010919D000E94FE0D2AE030E00E94FC0D009329
:141ADE006F002AE030E000919C0010919D000E94FC0D0093C2
:141AF2006E0089E0809360002FD988E0809360002BD92090FF
:141B06006F0020926400A0D920906E00209264009BD98AE0BB
:141B1A008093660081E0809368002224332430926D002092E4
:141B2E006C0060C022242092690010C08FE891E0E091690024
:141B4200FF27E80FF91F20802092600005D9809169008F5F62
:141B560080936900809169008E3060F324E630E000919E002B
:141B6A0010919F000E94FE0D009370002AE030E000919E002E
:141B7E0010919F000E94FE0D2AE030E00E94FC0D00936F009F
:141B92002AE030E000919E0010919F000E94FC0D00936E000A
:141BA60089E080936000D6D887E080936000D2D820906F00FE
:141BBA002092640047D982E280936000C9D88CE28093600088
:141BCE00C5D820906E00209264003AD98AE08093660081E0DB
:141BE200809368002224332430926D0020926C0059914991C6
:141BF6000895689401C0E894EA92FA928A93EE24FF2480E14A
:141C0A00000F111FEE1CFF1CE216F30618F0E21AF30A0395D8
:141C1E008A95A1F716F40E2D1F2D8991F990E9900895E89435
:141C320001C0689430D0CC2409C0E89401C068942AD037FDC1
:141C46000E949C0EB7FD52D0772488249924AA24BB2442D0A5
:141C5A00C1F045D0B1F0E8E2000F111F221F331F771C881C3C
:141C6E00991CAA1CBB1C88169906AA06BB0628F0881A990A05
:141C8200AA0ABB0A0395EA9559F726F4082D192D2A2D3B2D1A
:141C960013C07A928A929A92AA92BA92CA92EA938A939A9368
:141CAA00AA93BA938B859C85AD85BE85C32E0EF0CB26089579
:141CBE00C7FC0E949C0EB991A99199918991E991C990B9901F
:141CD200A99099908990799024960895E02FE12BE22BE32BED
:141CE6000895E82FE92BEA2BEB2B089580959095A095B095A6
:141CFA008F5F9F4FAF4FBF4F08950A921A928A939A93029F1E
:141D0E00C001129F900D039F900D8C01999189911990099060
:141D220008955A934A93BA92AA920895A990B99049915991DB
:141D3600089500951095209530950F5F1F4F2F4F3F4F0895C3
:141D4A00222321F0000F111F2A95FACF0895222321F01695CA
:081D5E0007952A95FACF0895BC
:00000001FF
